:020000040800F2
:100000000000022075140008B9100008C110000893
:10001000C9100008D1100008D91000080000000025
:10002000000000000000000000000000E1100008D7
:10003000EF10000800000000FD1000080B11000880
:10004000C5140008C5140008C5140008C51400082C
:10005000C5140008C5140008C5140008C51400081C
:10006000C51400081711000825110008C514000860
:10007000C5140008C5140008C5140008C5140008FC
:10008000C5140008C5140008C5140008C5140008EC
:10009000C5140008C5140008C5140008C5140008DC
:1000A000C5140008C5140008C5140008C5140008CC
:1000B000C5140008C5140008C5140008C5140008BC
:1000C000C5140008C5140008C5140008C5140008AC
:1000D000C5140008C5140008C5140008C51400089C
:1000E000C514000835110008C5140008C51400081F
:1000F000C5140008C5140008C5140008C51400087C
:10010000C5140008C5140008C5140008C51400086B
:10011000C5140008C5140008C514000849110008DA
:10012000C5140008C5140008C5140008C51400084B
:10013000C5140008C5140008C5140008C51400083B
:10014000C5140008C5140008C5140008C51400082B
:10015000C5140008C5140008C5140008C51400081B
:10016000C5140008C5140008C5140008C51400080B
:10017000C5140008C5140008C514000800000000DC
:08018000C5140008C5140008B5
:1001900010B5054C237833B9044B13B10448AFF3C1
:1001A00000800123237010BDF0000020000000003B
:1001B00070D4010808B5034B1BB103490348AFF3E2
:1001C000008008BD00000000F400002070D4010889
:1001D00001F0FF01102A2BDB10F0070F08D010F8F8
:1001E000013B013A8B422DD010F0070F42B3F6D1FC
:1001F000F0B441EA012141EA014122F007047FF015
:1002000000070023F0E80256083C85EA010586EA6B
:10021000010685FA47F5A3FA87F586FA47F6A5FAA7
:1002200087F68EB9EED1F0BC01F0FF0102F00702B3
:1002300032B110F8013B013A83EA010313B1F8D15E
:100240000020704701387047002D06BF354603383F
:10025000073815F0010F07D1013015F4807F02BF78
:10026000013015F4C03F0130F0BC0138704700BFC9
:1002700053B94AB9002908BF00281CBF4FF0FF310D
:100280004FF0FF3000F088B9ADF1080C6DE904CEF5
:1002900000F006F8DDF804E0DDE9022304B0704761
:1002A0002DE9F047089D8E4604468846002B4AD12A
:1002B0008A42174662D9B2FA82F64EB1C6F12003DD
:1002C00001FA06F820FA03F3B74043EA0808B440FD
:1002D0004FEA174E1FFA87FCB8FBFEF1230C0EFB0A
:1002E000118843EA084301FB0CF29A4209D9FB1832
:1002F00001F1FF3080F0EA809A4240F2E780023953
:100300003B449A1AA3B2B2FBFEF00EFB102243EA62
:10031000024300FB0CFC9C4509D9FB1800F1FF329D
:1003200080F0D6809C4540F2D3803B44023840EABE
:100330000140A3EB0C0300211DB1F3400022C5E9ED
:100340000032BDE8F0878B4205D90DB1C5E9000147
:1003500000210846F5E7B3FA83F1002946D1734539
:1003600002D3824200F20581841A6EEB030201205F
:100370009046002DE5D0C5E90048E2E7002A00F0EC
:100380009080B2FA82F6002E40F0A4808A1A030C04
:100390004FEA174E80B2BCB20121B2FBFEFC0EFB4D
:1003A0001C2243EA024304FB0CF29A4207D9FB18D1
:1003B0000CF1FF3802D29A4200F2E080C4469B1A48
:1003C000B3FBFEF20EFB123340EA034302FB04F4DC
:1003D0009C4207D9FB1802F1FF3002D29C4200F286
:1003E000CA8002461B1B42EA0C40A5E7C1F1200669
:1003F0008B4022FA06F71F430EFA01F420FA06F3A7
:100400002EFA06FE4FEA1749234300FA01F81FFAB5
:1004100087FCBEFBF9F01C0C09FB10EE44EA0E440D
:1004200000FB0CFEA64502FA01F209D93C1900F1C5
:10043000FF3A80F09C80A64540F2998002383C4407
:10044000A4EB0E041FFA83FEB4FBF9F309FB13447B
:100450004EEA044403FB0CFCA44508D93C1903F103
:10046000FF3E80F08280A4457FD9023B3C4443EAB2
:100470000040A4EB0C04A0FB02EC64457346E1468B
:1004800062D35FD05DB1B8EB030264EB090404FAF8
:1004900006F622FA01F31E43CC40C5E900640021B0
:1004A0004FE7B1FBF2FC010C41EA0E4180B240EA99
:1004B00001423B4638463C46B846BE462026B1FB84
:1004C000F7F1A2EB080241EA0C4166E7014618E7A2
:1004D00010462CE7C6F120022EFA02F3B740B140D5
:1004E00020FA02F24FEA174E0A43B3FBFEF8BCB201
:1004F0000EFB1833110C41EA034108FB04F9B0402C
:1005000089454FEA104380B23ED9791808F1FF3C83
:1005100001D289451FD8A1EB0901B1FBFEF909FB06
:1005200004F80EFB191192B242EA0142424529D267
:10053000BA1809F1FF31C4D24245C2D2A9F1020171
:100540003A44BEE7F0459DD2BEEB02036CEB070CCC
:100550000138E14696E7A7EB09094944A8F1020CE6
:10056000B1FBFEF909FB04F8DBE773467FE7504671
:1005700066E70846FDE63B44023A33E7ACF1020C7D
:100580003B441CE749469CE7A1EB0901C446B1FB8B
:10059000FEF909FB04F8C4E7704700BF80B483B0DC
:1005A00000AF7860044A7B681A607B6818460C3795
:1005B000BD465DF8047B7047B0E7010880B582B0A6
:1005C00000AF78607868FFF7E9FF042178681BF0D6
:1005D00092FE7B6818460837BD4680BD80B483B064
:1005E00000AF786000BF0C37BD465DF8047B7047F4
:1005F00080B483B000AF786000BF00BF0C37BD4649
:100600005DF8047B7047000080B483B000AF786071
:100610003960104B1B78002B07D10E4BFF221A704C
:100620003B6800221A7001230DE00A4B1B78012B56
:1006300007D1084BFF221A703B6801221A70012370
:1006400001E000BF002318460C37BD465DF8047B6F
:10065000704700BF0400002080B582B000AF786012
:10066000054A7B681A607B681846FFF797FF7B682E
:1006700018460837BD4680BD94E7010880B582B0B2
:1006800000AF78607868FFF7E7FF082178681BF013
:1006900032FE7B6818460837BD4680BD80B400AF87
:1006A000034B1B781846BD465DF8047B704700BFBE
:1006B0000C01002090B587B000AFF86008461146E5
:1006C0001A4603467B810B463B811346FB80FB8821
:1006D0003A8D02FB03F37B611D4B01221A707A896C
:1006E000FB8813449BB2013B9CB23A893B8D134477
:1006F0009BB2013B9BB239897889224604F0C8FB42
:1007000017E0FB681B78FB74FB680133FB60FB6838
:100710001B78BB74BB7C1BB21B021AB2FB7C1BB2E6
:1007200013431BB23B820B4A3B8A1380FB680133A5
:10073000FB607B695A1E7A61002BE2D1044B0022D8
:100740001A7009F0C7FB00BF1C37BD4690BD00BF43
:100750000C0100200000086080B500AF064B074A7E
:100760001A60054801F057F80346002B01D000F04D
:1007700005FB00BF80BD00BF10010020003002401B
:1007800080B485B000AF78607B681B680B4A9342E9
:100790000DD10023FB600A4B1B6B094A43F48053C5
:1007A0001363074B1B6B03F48053FB60FB6800BFB4
:1007B0001437BD465DF8047B704700BF003002402F
:1007C0000038024080B588B000AF3B1D00221A609F
:1007D0005A609A60DA601A615A619A61274B4FF049
:1007E00020421A60254B264A5A60244B00229A6008
:1007F000224B0022DA60214B00221A611F4B10228B
:100800005A611E4B00229A611C4B0022DA611B4B7D
:1008100000221A62194B00225A62184B4FF4805280
:100820009A62164B0022DA62144B00221A63134BB1
:1008300000225A63114B00229A63104B00225A6423
:1008400001237B600F23BB600523FB6000233B611A
:1008500010237B611123BB610023FB613B1D002240
:100860001946064803F048F80346002B01D000F073
:1008700085FA00BF2037BD4680BD00BF18010020AB
:10088000040100A080B586B000AF3B1D00221A60B5
:100890005A609A60DA601A611C4B1B68002B31D1D8
:1008A0001A4B01221A6000233B60194B9B6B184ABC
:1008B00043F001039363164B9B6B03F001033B6012
:1008C0003B684FF680737B600223BB600023FB60B4
:1008D00003233B610C237B613B1D19460D4800F04F
:1008E000B7FF4EF2B3737B600223BB600023FB6053
:1008F00003233B610C237B613B1D1946064800F036
:10090000A7FF00E000BF1837BD4680BD680100208A
:100910000038024000100240000C024080B582B056
:1009200000AF7860FFF7AEFF00BF0837BD4680BD5F
:1009300080B58CB000AF07F11C0300221A605A602A
:100940009A60DA601A610023BB615D4B1B6B5C4AE5
:1009500043F0100313635A4B1B6B03F01003BB618E
:10096000BB6900237B61564B1B6B554A43F0040364
:100970001363534B1B6B03F004037B617B69002300
:100980003B614F4B1B6B4E4A43F0800313634C4B50
:100990001B6B03F080033B613B690023FB60484B0A
:1009A0001B6B474A43F001031363454B1B6B03F07A
:1009B0000103FB60FB680023BB60414B1B6B404A9B
:1009C00043F0020313633E4B1B6B03F00203BB6057
:1009D000BB6800237B603A4B1B6B394A43F008032A
:1009E0001363374B1B6B03F008037B607B680122AA
:1009F000C021344801F0E0F800220221324801F021
:100A0000DBF801224FF480512F4801F0D5F818236C
:100A1000FB614FF404133B6201237B6207F11C036B
:100A200019462A4800F014FFC023FB6101233B62F2
:100A300000237B620023BB6207F11C031946214897
:100A400000F006FF2023FB6100233B6201237B6251
:100A500007F11C0319461E4800F0FAFE0223FB6151
:100A600001233B6200237B620023BB6207F11C036E
:100A70001946154800F0ECFE4FF48053FB6101234A
:100A80003B6201237B620023BB6207F11C03194612
:100A90000D4800F0DDFE00220021092000F085FE57
:100AA000092000F09EFE002200210A2000F07DFEB9
:100AB0000A2000F096FE00BF3037BD4680BD00BF63
:100AC00000380240000002400004024000100240D2
:100AD0000008024080B584B000AFF860B9607A6069
:100AE0007B689AB24FF0FF33B968044803F0B9FA53
:100AF0007B6818461037BD4680BD00BF3402002019
:100B000080B500AF00F0E0FC00F02EF8FFF710FF1A
:100B1000FFF758FE00F03CFCFFF71EFE00F0DAFB8A
:100B200000F024FA00F030F904F0FEF90A481BF056
:100B3000D5FD0A481BF03AFE09481BF037FE07486E
:100B40001BF034FE074802F06FFF04F095F904F043
:100B50001FF804F0F1F9FCE788D4010894D40108E7
:100B6000B4D40108EC01002080B594B000AF07F1C7
:100B700020033022002118461BF0F8FE07F10C0379
:100B800000221A605A609A60DA601A610023BB6022
:100B9000294B1B6C284A43F080531364264B1B6C73
:100BA00003F08053BB60BB6800237B60234B1B6852
:100BB000224A43F480431360204B1B6803F48043B4
:100BC0007B607B6805233B624FF480337B620123AB
:100BD000BB620223BB634FF48003FB6304233B64CB
:100BE000A8237B640223BB640423FB6407F1200376
:100BF000184601F02DF80346002B01D000F0BEF896
:100C00000F23FB6002233B6100237B614FF4A05361
:100C1000BB614FF48053FB6107F10C0305211846BB
:100C200001F08EFA0346002B01D000F0A7F800BFB8
:100C30005037BD4680BD00BF003802400070004004
:100C4000B0B58AB002AF786007F10C0300221A60D9
:100C50005A609A60DA601A610023BB6007F10C03E6
:100C600000221946174801F07DFE07F10803002213
:100C70001946144801F058FFBB7A19467B7A1A4688
:100C8000FB7A18463B7A009303460F481BF026FD7B
:100C90003B7B19467B7B1A46BB7B0C481BF01EFD39
:100CA0000B481BF01BFD0A481BF018FD7B681D4616
:100CB00007F10C040FCC0FC523682B607868203730
:100CC000BD46B0BD70010020C4D40108E0D40108C5
:100CD000F8D4010880B483B000AF78607B681B68EB
:100CE000054A934202D1054B01221A7000BF0C370E
:100CF000BD465DF8047B7047002800406C01002071
:100D000080B582B000AF78607B681B68044A93426C
:100D100001D109F0E5F800BF0837BD4680BD00BF2E
:100D20000014004080B582B000AF0346FB80FB8812
:100D3000102B09D10D4B00221A700D481BF036FD07
:100D40000C481BF0CBFC0DE0FB88082B09D1074BAE
:100D500001221A7008481BF029FD06481BF0BEFC52
:100D600000E000BF00BF0837BD4680BD0400002082
:100D700000D50108F8D4010814D5010880B400AFEB
:100D800072B600BF00BFFDE780B590B000AF07F1BD
:100D90002C0300221A605A609A60DA601A610023FC
:100DA000BB623B462822002118461BF0DFFD534B57
:100DB000534A1A60514B00225A60504B7F229A606E
:100DC0004E4BFF22DA604D4B00221A614B4B002242
:100DD0005A614A4B00229A61484801F0B3FC03462D
:100DE000002B01D0FFF7CAFF0121444802F031F97E
:100DF000034641F2FA32934258D042481BF0D6FCE7
:100E0000132387F82C30012387F82D30002387F82F
:100E10002E300023BB630023FB6307F12C03002269
:100E20001946364801F004FD0346002B01D0FFF7B8
:100E3000A5FF072387F82830062387F829301A23CF
:100E400087F82A30162387F82B3007F12803002271
:100E500019462A4801F0E4FD0346002B01D0FFF7B4
:100E60008DFF00233B7000237B700023BB700023A9
:100E70007B600023FB6000233B614FF080337B618C
:100E80000023BB610023FB61012387F820304FF46E
:100E900080737B623B4600221946184801F094FE9D
:100EA0000346002B26D0FFF769FF23E000233B70A9
:100EB00000237B700023BB7000237B600023FB605A
:100EC00000233B614FF080337B610023BB61002333
:100ED000FB61012387F820304FF480737B623B462F
:100EE00000221946054801F06FFE0346002B01D091
:100EF000FFF744FF00BF4037BD4680BD70010020B2
:100F00000028004028D5010880B586B000AF786081
:100F100007F1080300221A605A609A60DA607B6861
:100F20001B68104A934219D10223BB604FF48073AF
:100F30007B6107F10803184601F022FB0346002BF2
:100F400001D0FFF71BFF084B01221A60002200218D
:100F5000292000F02AFC292000F043FC00BF1837AC
:100F6000BD4680BD002800403C0E474280B500AF22
:100F7000174B184A1A60164B4FF482725A60144B82
:100F800000229A60124B0022DA60114B00221A6193
:100F90000F4B00225A610E4B4FF400729A610C4BBA
:100FA0002022DA610A4B00221A62094B00225A629F
:100FB000074B00229A62064B0A22DA62044802F0CA
:100FC0006AF80346002B01D0FFF7D8FE00BF80BDB2
:100FD000900100200038004080B58AB000AF7860F2
:100FE00007F1140300221A605A609A60DA601A61ED
:100FF0007B681B68194A93422CD100233B61184B34
:101000001B6C174A43F480431364154B1B6C03F4A9
:1010100080433B613B690023FB60114B1B6B104A13
:1010200043F0020313630E4B1B6B03F00203FB60E0
:10103000FB684FF460437B610223BB610023FB61CB
:1010400003233B6205237B6207F11403194605481D
:1010500000F0FEFB00BF2837BD4680BD00380040D1
:10106000003802400004024080B483B000AF002387
:101070007B60104B5B6C0F4A43F4804353640D4B11
:101080005B6C03F480437B607B6800233B60094B0F
:101090001B6C084A43F080531364064B1B6C03F02F
:1010A00080533B603B6800BF0C37BD465DF8047B56
:1010B000704700BF0038024080B400AF00BFFDE7BA
:1010C00080B400AF00BFFDE780B400AF00BFFDE714
:1010D00080B400AF00BFFDE780B400AF00BFFDE704
:1010E00080B400AF00BFBD465DF8047B704780B49C
:1010F00000AF00BFBD465DF8047B704780B400AF11
:1011000000BFBD465DF8047B704780B500AF00F0BE
:101110002DFA00BF80BD80B500AF082000F080FD33
:1011200000BF80BD80B500AF102000F079FD00BF8A
:1011300080BD000080B500AF024801F087FE00BF0F
:1011400080BD00BF7001002080B500AF024802F0F2
:10115000DBFC00BF80BD00BFEC01002080B400AF0D
:1011600001231846BD465DF8047B704780B582B008
:1011700000AF786039601BF09BFC034616221A60B2
:101180004FF0FF3318460837BD4680BD80B582B0AA
:1011900000AF78604FF0FF317868FFF7E7FF00BFDE
:1011A000FDE780B586B000AFF860B9607A600023D3
:1011B0007B610AE0AFF300800146BB685A1CBA604D
:1011C000CAB21A707B6901337B617A697B689A4283
:1011D000F0DB7B6818461837BD4680BD80B483B00D
:1011E00000AF78604FF0FF3318460C37BD465DF80E
:1011F000047B704780B483B000AF786039603B688F
:101200004FF400525A60002318460C37BD465DF873
:10121000047B704780B483B000AF78600123184628
:101220000C37BD465DF8047B704780B485B000AFD5
:10123000F860B9607A60002318461437BD465DF83F
:10124000047B704780B586B000AF7860144A154BB8
:10125000D31A7B617B693B61134B1B68002B02D166
:10126000114B124A1A60104B1A687B6813443A6992
:101270009A4207D21BF01CFC03460C221A604FF066
:10128000FF3309E0084B1B68FB60074B1A687B685B
:101290001344054A1360FB6818461837BD4680BDE5
:1012A0000000022000040000E80100203831002086
:1012B00080B400AF064BD3F88830054A43F470037E
:1012C000C2F8883000BFBD465DF8047B704700BFA0
:1012D00000ED00E080B582B000AF3B4600221A600E
:1012E0005A60154B154A1A60134B53225A60124B21
:1012F00000229A60104B47F22F52DA600E4B002208
:101300009A610D4802F040FB0346002B01D0FFF725
:1013100035FD00233B6000237B603B4619460648B1
:1013200002F0C2FD0346002B01D0FFF727FD00BFEE
:101330000837BD4680BD00BFEC010020001400400E
:1013400080B584B000AF78607B681B680E4A93421A
:1013500015D10023FB600D4B1B6C0C4A43F020039E
:1013600013640A4B1B6C03F02003FB60FB68002234
:101370000021372000F019FA372000F032FA00BFC0
:101380001037BD4680BD00BF001400400038024049
:1013900080B500AF114B124A1A60104B4FF4E13286
:1013A0005A600E4B00229A600C4B0022DA600B4B05
:1013B00000221A61094B0C225A61084B00229A61E3
:1013C000064B0022DA61054802F0FEFD0346002BC1
:1013D00001D0FFF7D3FC00BF80BD00BF3402002066
:1013E0000010014080B58AB000AF786007F11403A7
:1013F00000221A605A609A60DA601A617B681B6882
:10140000194A93422CD100233B61184B5B6C174A5D
:1014100043F010035364154B5B6C03F010033B6106
:101420003B690023FB60114B1B6B104A43F0010327
:1014300013630E4B1B6B03F00103FB60FB684FF45F
:10144000C0637B610223BB610023FB6103233B621A
:1014500007237B6207F114031946054800F0F8F9E9
:1014600000BF2837BD4680BD001001400038024053
:1014700000000240DFF834D00D480E490E4A002328
:1014800002E0D458C4500433C4188C42F9D30B4A38
:101490000B4C002301E013600432A242FBD3FFF7A0
:1014A00007FF1BF00BFBFFF72BFB70470000022030
:1014B00000000020F0000020188B0708F00000203A
:1014C00034310020FEE7000080B500AF0E4B1B68F2
:1014D0000D4A43F4007313600B4B1B680A4A43F434
:1014E00080631360084B1B68074A43F480731360E2
:1014F000032000F04FF90F2000F008F8FFF7B4FDCB
:101500000023184680BD00BF003C024080B582B079
:1015100000AF7860124B1A68124B1B7819464FF4D3
:101520007A73B3FBF1F3B2FBF3F3184600F067F9FB
:101530000346002B01D001230EE07B680F2B0AD855
:10154000002279684FF0FF3000F02FF9064A7B68DF
:101550001360002300E0012318460837BD4680BD14
:1015600008000020100000200C00002080B400AF14
:10157000064B1B781A46064B1B681344044A13603B
:1015800000BFBD465DF8047B704700BF100000201F
:101590007802002080B400AF034B1B681846BD469C
:1015A0005DF8047B704700BF7802002080B584B0EE
:1015B00000AF7860FFF7EEFFB8607B68FB60FB6808
:1015C000B3F1FF3F05D00A4B1B781A46FB68134462
:1015D000FB6000BFFFF7DEFF0246BB68D31AFA6864
:1015E0009A42F7D800BF00BF1037BD4680BD00BF8C
:1015F0001000002080B485B000AF78607B6803F0F5
:101600000703FB600C4BDB68BB60BA684FF6FF0357
:101610001340BB60FB681A02BB68134343F0BF630F
:1016200043F40033BB60044ABB68D36000BF143787
:10163000BD465DF8047B704700ED00E080B400AF6C
:10164000044BDB681B0A03F007031846BD465DF830
:10165000047B704700ED00E080B483B000AF034628
:10166000FB7197F90730002B0BDBFB7903F01F02AE
:10167000074997F907305B09012000FA02F241F8A7
:10168000232000BF0C37BD465DF8047B704700BFC8
:1016900000E100E080B483B000AF03463960FB7125
:1016A00097F90730002B0ADB3B68DAB20C4997F94F
:1016B00007301201D2B20B4483F800230AE03B68E2
:1016C000DAB20849FB7903F00F03043B1201D2B2EE
:1016D0000B441A7600BF0C37BD465DF8047B70479B
:1016E00000E100E000ED00E080B489B000AFF860F8
:1016F000B9607A60FB6803F00703FB61FB69C3F123
:101700000703042B28BF0423BB61FB690433062BAA
:1017100002D9FB69033B00E000237B614FF0FF32FD
:10172000BB6902FA03F3DA43BB681A407B699A404B
:101730004FF0FF317B6901FA03F3D9437B680B401B
:10174000134318462437BD465DF8047B70470000FC
:1017500080B582B000AF78607B68013BB3F1807FD9
:1017600001D301230FE00A4A7B68013B53600F213C
:101770004FF0FF30FFF78EFF054B00229A60044BBD
:1017800007221A60002318460837BD4680BD00BFF7
:1017900010E000E080B582B000AF78607868FFF7B5
:1017A00029FF00BF0837BD4680BD80B586B000AFB9
:1017B0000346B9607A60FB7300237B61FFF73EFF4D
:1017C00078617A68B9687869FFF78EFF024697F901
:1017D0000F3011461846FFF75DFF00BF1837BD46B2
:1017E00080BD80B582B000AF0346FB7197F907302A
:1017F0001846FFF731FF00BF0837BD4680BD80B5F2
:1018000082B000AF78607868FFF7A2FF0346184601
:101810000837BD4680BD80B582B000AF78607B6878
:10182000002B01D101230EE07B685B79DBB2002B3A
:1018300005D17B6800221A717868FEF7A1FF7B68EA
:1018400001225A71002318460837BD4680BD0000AA
:1018500080B489B000AF7860396000237B610023D9
:101860003B610023BB610023FB616BE10122FB694B
:1018700002FA03F37B613B681B687A6913403B61A2
:101880003A697B699A4240F05A813B685B6803F091
:101890000303012B05D03B685B6803F00303022BB5
:1018A00030D17B689B68BB61FB695B00032202FA55
:1018B00003F3DB43BA691340BB613B68DA68FB6939
:1018C0005B0002FA03F3BA691343BB617B68BA6930
:1018D0009A607B685B68BB610122FB6902FA03F3D3
:1018E000DB43BA691340BB613B685B681B0903F0CB
:1018F0000102FB6902FA03F3BA691343BB617B6817
:10190000BA695A603B685B6803F00303032B17D086
:101910007B68DB68BB61FB695B00032202FA03F3AF
:10192000DB43BA691340BB613B689A68FB695B00A3
:1019300002FA03F3BA691343BB617B68BA69DA60E0
:101940003B685B6803F00303022B23D1FB69DA08D1
:101950007B68083253F82230BB61FB6903F0070350
:101960009B000F2202FA03F3DB43BA691340BB6109
:101970003B681A69FB6903F007039B0002FA03F353
:10198000BA691343BB61FB69DA087B680832B9693D
:1019900043F822107B681B68BB61FB695B00032274
:1019A00002FA03F3DB43BA691340BB613B685B682F
:1019B00003F00302FB695B0002FA03F3BA69134305
:1019C000BB617B68BA691A603B685B6803F44033AB
:1019D000002B00F0B4800023FB60604B5B6C5F4A1F
:1019E00043F4804353645D4B5B6C03F48043FB60C2
:1019F000FB685B4AFB699B08023352F82330BB61EA
:101A0000FB6903F003039B000F2202FA03F3DB439D
:101A1000BA691340BB617B68524A93422BD07B6802
:101A2000514A934225D07B68504A93421FD07B682D
:101A30004F4A934219D07B684E4A934213D07B6839
:101A40004D4A93420DD07B684C4A934207D07B6845
:101A50004B4A934201D107230EE008230CE00623F2
:101A60000AE0052308E0042306E0032304E0022340
:101A700002E0012300E00023FA6902F00302920071
:101A80009340BA691343BB613549FB699B08023334
:101A9000BA6941F823203B4B9B68BB613B69DB4340
:101AA000BA691340BB613B685B6803F48013002B89
:101AB00003D0BA693B691343BB61324ABB69936087
:101AC000304BDB68BB613B69DB43BA691340BB61E8
:101AD0003B685B6803F40013002B03D0BA693B69D1
:101AE0001343BB61274ABB69D360264B5B68BB616C
:101AF0003B69DB43BA691340BB613B685B6803F435
:101B00000033002B03D0BA693B691343BB611D4A04
:101B1000BB6953601B4B1B68BB613B69DB43BA6904
:101B20001340BB613B685B6803F48033002B03D038
:101B3000BA693B691343BB61124ABB691360FB6915
:101B40000133FB61FB690F2B7FF690AE00BF00BF36
:101B50002437BD465DF8047B704700BF0038024063
:101B6000003801400000024000040240000802402A
:101B7000000C024000100240001402400018024015
:101B8000001C0240003C014080B485B000AF78608A
:101B90000B467B807B681A697B881340002B02D040
:101BA0000123FB7301E00023FB73FB7B1846143712
:101BB000BD465DF8047B704780B483B000AF7860A9
:101BC0000B467B8013467B707B78002B03D07A8892
:101BD0007B689A6103E07B881A047B689A6100BF86
:101BE0000C37BD465DF8047B704780B485B000AF0C
:101BF00078600B467B807B685B69FB607A88FB685A
:101C000013401A04FB68D9437B880B401A437B6856
:101C10009A6100BF1437BD465DF8047B7047000031
:101C200080B582B000AF0346FB80084B5A69FB8841
:101C30001340002B06D0054AFB885361FB881846E9
:101C4000FFF770F800BF0837BD4680BD003C01407B
:101C500080B586B000AF78607B68002B01D101238E
:101C600067E27B681B6803F00103002B75D0884B8B
:101C70009B6803F00C03042B0CD0854B9B6803F08E
:101C80000C03082B12D1824B5B6803F48003B3F57D
:101C9000800F0BD17E4B1B6803F40033002B5BD00D
:101CA0007B685B68002B57D1012342E27B685B684D
:101CB000B3F5803F06D1764B1B68754A43F48033F9
:101CC00013601DE07B685B68B3F5A02F0CD1704BEF
:101CD0001B686F4A43F4802313606D4B1B686C4A8A
:101CE00043F4803313600BE0694B1B68684A23F4AC
:101CF00080331360664B1B68654A23F480231360AE
:101D00007B685B68002B13D0FFF744FC386108E068
:101D1000FFF740FC02463B69D31A642B01D9032329
:101D200007E25B4B1B6803F40033002BF0D014E098
:101D3000FFF730FC386108E0FFF72CFC02463B69F6
:101D4000D31A642B01D90323F3E1514B1B6803F42D
:101D50000033002BF0D100E000BF7B681B6803F06C
:101D60000203002B63D04A4B9B6803F00C03002B4B
:101D70000BD0474B9B6803F00C03082B1CD1444B42
:101D80005B6803F48003002B16D1414B1B6803F002
:101D90000203002B05D07B68DB68012B01D00123F7
:101DA000C7E13B4B1B6823F0F8027B681B69DB0033
:101DB000374913430B603AE07B68DB68002B20D087
:101DC000344B01221A60FFF7E5FB386108E0FFF7AA
:101DD000E1FB02463B69D31A022B01D90323A8E198
:101DE0002B4B1B6803F00203002BF0D0284B1B6821
:101DF00023F0F8027B681B69DB00254913430B6065
:101E000015E0244B00221A60FFF7C4FB386108E09C
:101E1000FFF7C0FB02463B69D31A022B01D903230B
:101E200087E11B4B1B6803F00203002BF0D17B689A
:101E30001B6803F00803002B36D07B685B69002B1E
:101E400016D0154B01221A60FFF7A4FB386108E099
:101E5000FFF7A0FB02463B69D31A022B01D90323EB
:101E600067E10B4B5B6F03F00203002BF0D01BE02C
:101E7000094B00221A60FFF78DFB38610EE0FFF777
:101E800089FB02463B69D31A022B07D9032350E191
:101E90000038024000004742800E4742884B5B6F8B
:101EA00003F00203002BEAD17B681B6803F00403F4
:101EB000002B00F097800023FB75814B1B6C03F017
:101EC0008053002B0FD10023BB607D4B1B6C7C4AE1
:101ED00043F0805313647A4B1B6C03F08053BB6058
:101EE000BB680123FB75774B1B6803F48073002BE1
:101EF00018D1744B1B68734A43F480731360FFF767
:101F000049FB386108E0FFF745FB02463B69D31AFD
:101F1000022B01D903230CE16A4B1B6803F4807385
:101F2000002BF0D07B689B68012B06D1644B1B6FA4
:101F3000634A43F0010313671CE07B689B68052B31
:101F40000CD15F4B1B6F5E4A43F0040313675C4B7D
:101F50001B6F5B4A43F0010313670BE0584B1B6F89
:101F6000574A23F001031367554B1B6F544A23F064
:101F7000040313677B689B68002B15D0FFF70AFBEF
:101F800038610AE0FFF706FB02463B69D31A41F2CB
:101F90008832934201D90323CBE0494B1B6F03F0F6
:101FA0000203002BEED014E0FFF7F4FA38610AE0E8
:101FB000FFF7F0FA02463B69D31A41F288329342A6
:101FC00001D90323B5E03E4B1B6F03F00203002B46
:101FD000EED1FB7D012B05D1394B1B6C384A23F028
:101FE000805313647B689B69002B00F0A180344B05
:101FF0009B6803F00C03082B5CD07B689B69022B69
:1020000041D1314B00221A60FFF7C4FA386108E071
:10201000FFF7C0FA02463B69D31A022B01D903230A
:1020200087E0274B1B6803F00073002BF0D17B681F
:10203000DA697B681B6A1A437B685B6A9B011A43F7
:102040007B689B6A5B08013B1B041A437B68DB6A65
:102050001B061B4913434B601B4B01221A60FFF701
:1020600099FA386108E0FFF795FA02463B69D31AFE
:10207000022B01D903235CE0114B1B6803F00073B2
:10208000002BF0D054E0104B00221A60FFF782FAC8
:10209000386108E0FFF77EFA02463B69D31A022B4B
:1020A00001D9032345E0064B1B6803F00073002BA6
:1020B000F0D13DE07B689B69012B07D1012338E01B
:1020C0000038024000700040600047421B4B5B68D4
:1020D000FB607B689B69012B28D0FB6803F48002BE
:1020E0007B68DB699A4221D1FB6803F03F027B6881
:1020F0001B6A9A421AD1FA6847F6C07313407A688D
:10210000526A9201934211D1FB6803F440327B681A
:102110009B6A5B08013B1B049A4207D1FB6803F0F2
:1021200070627B68DB6A1B069A4201D0012300E0E3
:10213000002318461837BD4680BD00BF0038024056
:1021400080B584B000AF786039607B68002B01D126
:102150000123CCE0684B1B6803F007033A689A42FE
:102160000CD9654B3A68D2B21A70634B1B6803F006
:1021700007033A689A4201D00123B8E07B681B68E4
:1021800003F00203002B20D07B681B6803F00403DC
:10219000002B05D0594B9B68584A43F4E053936099
:1021A0007B681B6803F00803002B05D0534B9B682A
:1021B000524A43F460439360504B9B6823F0F00213
:1021C0007B689B684D4913438B607B681B6803F0F9
:1021D0000103002B44D07B685B68012B07D1474B80
:1021E0001B6803F40033002B19D101237FE07B68C7
:1021F0005B68022B03D07B685B68032B07D13F4BE6
:102200001B6803F00073002B09D101236FE03B4BE7
:102210001B6803F00203002B01D1012367E0374B59
:102220009B6823F003027B685B68344913438B602F
:10223000FFF7B0F9F8600AE0FFF7ACF90246FB6877
:10224000D31A41F28832934201D903234FE02B4B3A
:102250009B6803F00C027B685B689B009A42EBD1A1
:10226000254B1B6803F007033A689A420CD2224BB5
:102270003A68D2B21A70204B1B6803F007033A6821
:102280009A4201D0012332E07B681B6803F004030B
:10229000002B08D0194B9B6823F4E0527B68DB6865
:1022A000164913438B607B681B6803F00803002BFF
:1022B00009D0124B9B6823F460427B681B69DB00EA
:1022C0000E4913438B6000F021F802460B4B9B68CC
:1022D0001B0903F00F030A49CB5C22FA03F3094AF6
:1022E0001360094B1B681846FFF710F900231846C6
:1022F0001037BD4680BD00BF003C024000380240A0
:10230000C4E70108080000200C0000202DE9B04FB0
:1023100094B000AF00237B640023FB6400233B6484
:102320000023BB64794B9B6803F00C03082B0DD092
:10233000082B00F2E180002B02D0042B03D0DBE05D
:10234000734BBB64DBE0734BBB64D8E06F4B5B68E3
:1023500003F03F037B646D4B5B6803F48003002B49
:1023600063D06A4B5B689B090022BB63FA63BB6B5B
:10237000C3F308033B6300237B63D7E90C45224684
:102380002B464FF000004FF00001590141EAD261A5
:10239000500102460B462146511A3961294663EB2A
:1023A00001037B614FF000024FF00003D7E904AB5B
:1023B00059468B01514643EA916351468A01514681
:1023C000B2EB0108594663EB01094FF000024FF0F0
:1023D00000034FEAC90343EA58734FEAC802904624
:1023E0009946234618EB0303BB602B4649EB0303D6
:1023F000FB604FF000024FF00003D7E90245294689
:102400004B02214643EAD15321464A02104619465F
:102410007B6C0022BB62FA62D7E90A23FDF728FF32
:1024200002460B461346FB6458E0384B5B689B0939
:10243000002218461146C0F308033B6200237B626A
:10244000D7E9088942464B464FF000004FF00001A3
:10245000590141EAD261500102460B464146B2EBB6
:10246000010A494663EB010B4FF000024FF00003F5
:102470004FEA8B1343EA9A634FEA8A12B2EB0A04DB
:1024800063EB0B054FF000024FF00003EB0043EA53
:102490005473E20014461D464346E3183B604B4626
:1024A00045EB03037B604FF000024FF00003D7E9D8
:1024B000004529468B02214643EA915321468A0270
:1024C000104619467B6C0022BB61FA61D7E90623EE
:1024D000FDF7CEFE02460B461346FB640B4B5B68D2
:1024E0001B0C03F0030301335B003B64FA6C3B6C91
:1024F000B2FBF3F3BB6402E0054BBB6400BFBB6CF3
:1025000018465037BD46BDE8B08F00BF00380240C6
:102510000024F40000127A0080B400AF034B1B6863
:102520001846BD465DF8047B704700BF08000020D8
:1025300080B500AFFFF7F0FF0246054B9B689B0A92
:1025400003F007030349CB5C22FA03F3184680BD6E
:1025500000380240D4E7010880B500AFFFF7DCFF88
:102560000246054B9B685B0B03F007030349CB5CFA
:1025700022FA03F3184680BD00380240D4E7010870
:1025800080B586B000AF786000237B6100233B619B
:102590007B681B6803F00103002B05D17B681B6877
:1025A00003F00403002B35D0624B00221A60FEF7C3
:1025B000F1FF786108E0FEF7EDFF02467B69D31A70
:1025C000022B01D90323B0E05B4B1B6803F00063CF
:1025D000002BF0D17B685B689A017B689B681B07C6
:1025E00055491343C1F88430524B01221A60FEF75B
:1025F000D1FF786108E0FEF7CDFF02467B69D31A70
:10260000022B01D9032390E04B4B1B6803F00063BE
:10261000002BF0D07B681B6803F00203002B00F056
:1026200083800023FB60444B1B6C434A43F0805380
:102630001364414B1B6C03F08053FB60FB683F4B02
:102640001B683E4A43F480731360FEF7A3FF786172
:1026500008E0FEF79FFF02467B69D31A022B01D9DF
:10266000032362E0354B1B6803F48073002BF0D02A
:10267000314B1B6F03F440733B613B69002B2FD040
:102680007B68DB6803F440733A699A4228D02A4B8E
:102690001B6F23F440733B61294B01221A60284BC6
:1026A00000221A60244A3B691367234B1B6F03F017
:1026B0000103012B14D1FEF76DFF78610AE0FEF7EC
:1026C00069FF02467B69D31A41F28832934201D9ED
:1026D00003232AE0184B1B6F03F00203002BEED0FC
:1026E0007B68DB6803F44073B3F5407F0DD1124B78
:1026F0009B6823F4F8127B68DB6823F0704323F4B3
:1027000040730D4913438B6005E00B4B9B680A4AED
:1027100023F4F8139360084B1A6F7B68DB68C3F3EC
:102720000B03054913430B67002318461837BD46B2
:1027300080BD00BF68004742003802400070004082
:10274000400E474280B584B000AF78600123FB7330
:102750007B68002B01D1012366E07B685B7FDBB2E5
:10276000002B05D17B6800221A777868FEF7CCFB36
:102770007B6802225A777B681B68CA225A627B6890
:102780001B6853225A62786800F0CEFB0346FB7345
:10279000FB7B002B2CD17B681B689B687A681268D6
:1027A00023F4E00323F0400393607B681B6899687F
:1027B0007B685A687B681B691A437B685B691A43AC
:1027C0007B681B680A439A607B681B687A68D268DA
:1027D0001A617B681B6819697B689B681A047B68AF
:1027E0001B680A431A61786800F0D5FB0346FB7347
:1027F000FB7B002B13D17B681B681A6C7B681B6802
:1028000022F480221A647B681B68196C7B689A69C1
:102810007B681B680A431A647B6801225A777B68CD
:102820001B68FF225A62FB7B18461037BD4680BDED
:1028300090B587B000AFF860B9607A6000237B6123
:10284000FB681B7F012B01D1022387E0FB6801227B
:102850001A77FB6802225A777B68002B26D1FB6827
:102860001B689B6803F04003002B02D1BB68002269
:10287000DA70BB681B78184600F0B2FB03461C04F4
:10288000BB685B78184600F0ABFB03461B021C4399
:10289000BB689B78184600F0A3FB034644EA03029A
:1028A000BB68DB789B0513437B6118E0FB681B6802
:1028B0009B6803F04003002B02D1BB680022DA7052
:1028C000BB681B781A04BB685B781B021343BA68A9
:1028D00092781A43BB68DB789B0513437B61FB68E6
:1028E0001B68CA225A62FB681B6853225A62F86846
:1028F00000F01AFB0346FB74FB7C002B20D1FB6825
:102900001A687B6903F07F3323F0FE431360FB6892
:102910001B689A68FB681B6822F480229A60FB6837
:102920001B689968BB68DA68BB681B691A43FB6857
:102930001B680A439A60F86800F02DFB0346FB749D
:10294000FB7C002B02D1FB6801225A77FB681B68D5
:10295000FF225A62FB6800221A77FB7C18461C375C
:10296000BD4690BD80B586B000AFF860B9607A60B2
:1029700000237B61FB681B689A6ABB685A60FB682E
:102980001B681B69C3F30E02BB689A60FB681B6877
:102990001B6803F07F3323F0FE437B617B691B0CD4
:1029A000DBB203F03F03DAB2BB681A707B691B0A23
:1029B000DBB203F07F03DAB2BB685A707B69DBB22B
:1029C00003F07F03DAB2BB689A707B699B0DDBB2C0
:1029D00003F00103DAB2BB68DA707B68002B1AD10E
:1029E000BB681B78184600F018FB03461A46BB6804
:1029F0001A70BB685B78184600F00FFB03461A4656
:102A0000BB685A70BB689B78184600F006FB03460B
:102A10001A46BB689A70002318461837BD4680BD19
:102A200090B587B000AFF860B9607A6000237B6131
:102A3000FB681B7F012B01D1022371E0FB6801229F
:102A40001A77FB6802225A777B68002B0ED1BB688D
:102A50005B7803F01003002B08D0BB685B7823F091
:102A60001003DBB20A33DAB2BB685A707B68002B02
:102A70001CD1BB68DB78184600F0B2FA03461C0490
:102A8000BB685B78184600F0ABFA03461B021C4398
:102A9000BB689B78184600F0A3FA034644EA030299
:102AA000BB681B785B0313437B610EE0BB68DB787C
:102AB0001A04BB685B781B021343BA6892781A4306
:102AC000BB681B785B0313437B61FB681B68CA22EE
:102AD0005A62FB681B6853225A62F86800F024FAB5
:102AE0000346FB74FB7C002B0CD1FB681A687B69E6
:102AF00023F07F4323F0C0035360F86800F04BFAE3
:102B00000346FB74FB7C002B02D1FB6801225A7741
:102B1000FB681B68FF225A62FB6800221A77FB7C65
:102B200018461C37BD4690BD80B586B000AFF86032
:102B3000B9607A6000237B61FB681B685B6823F0E7
:102B40007F4323F0C0037B617B691B0CDAB2BB6857
:102B5000DA707B691B0ADBB203F01F03DAB2BB68D1
:102B60005A707B69DBB203F03F03DAB2BB689A703C
:102B70007B695B0BDBB203F00703DAB2BB681A7048
:102B80007B68002B1AD1BB68DB78184600F045FA49
:102B900003461A46BB68DA70BB685B78184600F0DB
:102BA0003CFA03461A46BB685A70BB689B781846C5
:102BB00000F033FA03461A46BB689A7000231846A1
:102BC0001837BD4680BD000090B589B000AFF860F1
:102BD000B9607A609A4B1B689A4AA2FB0323DB0A0E
:102BE0004FF47A7202FB03F37B610023FB61002345
:102BF000BB61FB681B7F012B01D102231CE1FB6839
:102C000001221A77FB6802225A777B68002B37D1A2
:102C1000FB681B689B6803F04003002B02D1BB6874
:102C20000022DA70BB681B78184600F0D9F9034619
:102C30001C04BB685B78184600F0D2F903461B02FF
:102C40001C43BB689B78184600F0CAF9034644EA67
:102C50000302BB68DB789B0542EA0304BB6893F878
:102C60002030184600F0BCF903461B0644EA030274
:102C7000BB68DB691A43BB685B691343FB6123E0F4
:102C8000FB681B689B6803F04003002B02D1BB6804
:102C90000022DA70BB681B781A04BB685B781B02E1
:102CA0001343BA6892781A43BB68DB789B051A43D2
:102CB000BB6893F820301B061A43BB68DB691A43D4
:102CC000BB685B691343FB61BB685A68BB689B695F
:102CD0001343BB61FB681B68CA225A62FB681B680E
:102CE00053225A62BB685B6AB3F5807F41D1FB68AF
:102CF0001B689A68FB681B6822F480729A60FB6804
:102D00001B68DB68DAB2FB681B6862F4C072DA60C9
:102D10007B695A1E7A61002B0BD1FB681B68FF226E
:102D20005A62FB6803225A77FB6800221A77032352
:102D300082E0FB681B68DB6803F00103002BE7D02F
:102D4000FB681B68FA69DA61FB681B68BA695A6438
:102D5000FB681B689A68FB681B6842F480729A6083
:102D6000FB681B689A68FB681B6842F480529A6093
:102D70004BE0FB681B689A68FB681B6822F40072D2
:102D80009A60FB681B68DB68DAB2FB681B6862F458
:102D90002072DA602A4B1B682A4AA2FB0323DB0A53
:102DA0004FF47A7202FB03F37B617B695A1E7A61EE
:102DB000002B0BD1FB681B68FF225A62FB680322C1
:102DC0005A77FB6800221A77032335E0FB681B68FB
:102DD000DB6803F00203002BE7D0FB681B68FA698D
:102DE0001A62FB681B68BA699A64FB681B689A6878
:102DF000FB681B6842F400729A60FB681B689A6863
:102E0000FB681B6842F400529A600F4B1B680E4A25
:102E100043F4003313600C4B9B680B4A43F40033BC
:102E20009360FB681B68FF225A62FB6801225A7795
:102E3000FB6800221A77002318462437BD4690BD50
:102E400008000020D34D6210003C014080B582B0E4
:102E500000AF78607B681B689B6803F48053002B8D
:102E600012D07B681B68DB6803F48073002B0BD0E7
:102E70007868FDF72FFF7B681B68DB68DAB27B6838
:102E80001B6862F4C072DA607B681B689B6803F49D
:102E90000053002B12D07B681B68DB6803F40073BF
:102EA000002B0BD0786800F0ECF87B681B68DB68BF
:102EB000DAB27B681B6862F42072DA60054B4FF46B
:102EC00000325A617B6801225A7700BF0837BD463D
:102ED00080BD00BF003C014080B584B000AF786089
:102EE0000023FB607B681B68DA687B681B6822F044
:102EF000A002DA60FEF74EFBF86009E0FEF74AFB3D
:102F00000246FB68D31AB3F57A7F01D9032307E0A1
:102F10007B681B68DB6803F02003002BEED00023E6
:102F200018461037BD4680BD80B584B000AF7860CC
:102F30000023BB600023FB737B681B68DB6803F026
:102F40004003002B22D17B681B68DA687B681B6812
:102F500042F08002DA60FEF71DFBB8600CE0FEF77D
:102F600019FB0246BB68D31AB3F57A7F04D97B6894
:102F700004225A770123FB737B681B68DB6803F02C
:102F80004003002B02D1FB7B012BE8D1FB7B1846D1
:102F90001037BD4680BD80B584B000AF7860002397
:102FA000FB737B681B68DA687B681B6822F0800211
:102FB000DA607B681B689B6803F02003002B0AD152
:102FC0007868FFF789FF0346002B04D07B68042252
:102FD0005A770123FB73FB7B18461037BD4680BD33
:102FE00080B485B000AF0346FB710023FB7305E09E
:102FF000FB7B0133FB73FB790A3BFB71FB79092BEC
:10300000F6D8FB7B1B01DAB2FB791343DBB218461F
:103010001437BD465DF8047B704780B485B000AFBF
:103020000346FB710023FB73FB791B09DBB21A46D5
:10303000920013445B00FB73FB7903F00F03DAB2D9
:10304000FB7B1344DBB218461437BD465DF8047BA6
:10305000704780B485B000AF786039600023FB60B2
:103060007B681B685033FB603B689B00FA68134425
:10307000FB60FB681B6818461437BD465DF8047B8F
:10308000704780B483B000AF786000BF0C37BD4696
:103090005DF8047B704780B582B000AF78607B68D4
:1030A000002B01D101237BE07B685B6A002B08D1F8
:1030B0007B685B68B3F5827F09D07B680022DA61A8
:1030C00005E07B6800221A617B6800225A617B68F8
:1030D00000229A627B6893F85130DBB2002B06D154
:1030E0007B68002283F850207868FDF775FF7B68C5
:1030F000022283F851207B681B681A687B681B6872
:1031000022F040021A607B685B6803F482727B687D
:103110009B6803F404431A437B68DB6803F4006391
:103120001A437B681B6903F002031A437B685B69DF
:1031300003F001031A437B689B6903F400731A438D
:103140007B68DB6903F038031A437B681B6A03F072
:10315000800342EA03017B689B6A03F400527B68A8
:103160001B680A431A607B689B691B0C03F004010F
:103170007B685B6A03F010027B681B680A435A6035
:103180007B681B68DA697B681B6822F40062DA617D
:103190007B6800225A657B68012283F85120002356
:1031A00018460837BD4680BD80B588B000AFF860CE
:1031B000B9603B601346FB800023FB77FB6893F804
:1031C0005030012B01D1022326E1FB68012283F854
:1031D0005020FEF7DFF9B861FB88FB82FB6893F8AB
:1031E0005130DBB2012B02D00223FB770BE1BB682D
:1031F000002B02D0FB88002B02D10123FB7702E1D8
:10320000FB68032283F85120FB6800225A65FB68A3
:10321000BA681A63FB68FA889A86FB68FA88DA86C5
:10322000FB6800229A63FB6800229A87FB680022F1
:10323000DA87FB6800225A64FB6800221A64FB6884
:103240009B68B3F5004F0FD1FB681B681A68FB68D9
:103250001B6822F040021A60FB681B681A68FB6852
:103260001B6842F480421A60FB681B681B6803F00D
:103270004003402B07D0FB681B681A68FB681B687B
:1032800042F040021A60FB68DB68B3F5006F4BD177
:10329000FB685B68002B02D0FB8A012B3ED1FB68E8
:1032A0001B6B1A88FB681B68DA60FB681B6B9A1C37
:1032B000FB681A63FB68DB8E9BB2013B9AB2FB682A
:1032C000DA862BE0FB681B689B6803F00203022B85
:1032D00012D1FB681B6B1A88FB681B68DA60FB68FD
:1032E0001B6B9A1CFB681A63FB68DB8E9BB2013B6D
:1032F0009AB2FB68DA8611E0FEF74CF90246BB6928
:10330000D31A3A689A4203D83B68B3F1FF3F02D11F
:103310003B68002B02D10323FB7774E0FB68DB8E54
:103320009BB2002BCED14CE0FB685B68002B02D037
:10333000FB8A012B40D1FB681A6BFB681B680C33BE
:1033400012781A70FB681B6B5A1CFB681A63FB68C7
:10335000DB8E9BB2013B9AB2FB68DA862CE0FB68FD
:103360001B689B6803F00203022B13D1FB681A6BE6
:10337000FB681B680C3312781A70FB681B6B5A1CB5
:10338000FB681A63FB68DB8E9BB2013B9AB2FB6859
:10339000DA8611E0FEF7FEF80246BB69D31A3A68F6
:1033A0009A4203D83B68B3F1FF3F02D13B68002B40
:1033B00002D10323FB7726E0FB68DB8E9BB2002B58
:1033C000CDD1BA693968F86800F054FA0346002B89
:1033D00002D0FB6820225A65FB689B68002B0AD14B
:1033E00000233B61FB681B68DB683B61FB681B6873
:1033F0009B683B613B69FB685B6D002B02D001233E
:10340000FB7700E000BFFB68012283F85120FB68D6
:10341000002283F85020FB7F18462037BD4680BD30
:1034200080B58CB000AFF860B9607A607B80012312
:10343000FB62002387F82B30FB6893F85030012B98
:1034400001D102238AE1FB68012283F85020FEF7B4
:10345000A1F87862FB6893F8513087F82330FB6855
:103460005B68FB617B887B8397F82330012B0FD04F
:10347000FB69B3F5827F07D1FB689B68002B03D102
:1034800097F82330042B03D0022387F82B305BE11D
:10349000BB68002B05D07B68002B02D07B88002BFB
:1034A00003D1012387F82B304EE1FB6893F85130AC
:1034B000DBB2042B03D0FB68052283F85120FB68A4
:1034C00000225A65FB687A689A63FB687A88DA8713
:1034D000FB687A889A87FB68BA681A63FB687A88FF
:1034E000DA86FB687A889A86FB6800221A64FB6891
:1034F00000225A64FB681B681B6803F04003402BE2
:1035000007D0FB681B681A68FB681B6842F0400222
:103510001A60FB68DB68B3F5006F78D1FB685B6805
:10352000002B02D07B8B012B66D1FB681B6B1A88AA
:10353000FB681B68DA60FB681B6B9A1CFB681A63EC
:10354000FB68DB8E9BB2013B9AB2FB68DA8653E0E4
:10355000FB681B689B6803F00203022B1BD1FB680E
:10356000DB8E9BB2002B16D0FB6A012B13D1FB68BC
:103570001B6B1A88FB681B68DA60FB681B6B9A1C64
:10358000FB681A63FB68DB8E9BB2013B9AB2FB6857
:10359000DA860023FB62FB681B689B6803F001036B
:1035A000012B19D1FB68DB8F9BB2002B14D0FB6879
:1035B0001B68DA68FB689B6B92B21A80FB689B6B96
:1035C0009A1CFB689A63FB68DB8F9BB2013B9AB243
:1035D000FB68DA870123FB62FDF7DCFF02467B6AAA
:1035E000D31ABA6B9A4207D8BB6BB3F1FF3F03D033
:1035F000032387F82B30A7E0FB68DB8E9BB2002B00
:10360000A6D1FB68DB8F9BB2002BA1D17CE0FB68CD
:103610005B68002B02D07B8B012B6BD1FB681A6B94
:10362000FB681B680C3312781A70FB681B6B5A1C02
:10363000FB681A63FB68DB8E9BB2013B9AB2FB68A6
:10364000DA8657E0FB681B689B6803F00203022BD5
:103650001CD1FB68DB8E9BB2002B17D0FB6A012BC1
:1036600014D1FB681A6BFB681B680C3312781A7054
:10367000FB681B6B5A1CFB681A63FB68DB8E9BB2F2
:10368000013B9AB2FB68DA860023FB62FB681B6889
:103690009B6803F00103012B19D1FB68DB8F9BB200
:1036A000002B14D0FB681B68DA68FB689B6BD2B2F6
:1036B0001A70FB689B6B5A1CFB689A63FB68DB8F74
:1036C0009BB2013B9AB2FB68DA870123FB62FDF7EC
:1036D00061FF02467B6AD31ABA6B9A4203D8BB6B6E
:1036E000B3F1FF3F02D1BB6B002B03D1032387F85B
:1036F0002B3029E0FB68DB8E9BB2002BA2D1FB684C
:10370000DB8F9BB2002B9DD17A6AB96BF86800F011
:10371000B1F80346002B06D0012387F82B30FB6855
:1037200020225A6510E0FB689B68002B0BD1002318
:103730007B61FB681B68DB687B61FB681B689B68BF
:103740007B617B6900E000BFFB68012283F85120A8
:10375000FB68002283F8502097F82B30184630374A
:10376000BD4680BD80B588B000AFF860B9603B60F1
:103770001346FB71FDF70EFF0246BB6A9B1A3A68BF
:103780001344FB61FDF706FFB861394B1B685B0111
:103790001B0DFA6902FB03F37B6154E03B68B3F154
:1037A000FF3F50D0FDF7F6FE0246BB69D31AFA6917
:1037B0009A4202D9FB69002B3DD1FB681B685A680D
:1037C000FB681B6822F0E0025A60FB685B68B3F597
:1037D000827F11D1FB689B68B3F5004F04D0FB6872
:1037E0009B68B3F5806F07D1FB681B681A68FB689C
:1037F0001B6822F040021A60FB689B6AB3F5005F09
:103800000FD1FB681B681A68FB681B6822F4005222
:103810001A60FB681B681A68FB681B6842F4005258
:103820001A60FB68012283F85120FB68002283F8AC
:103830005020032317E07B69002B01D10023FB619B
:103840007B69013B7B61FB681B689A68BB6813401E
:10385000BA689A420CBF01230023DBB21A46FB79F7
:103860009A429BD1002318462037BD4680BD00BF39
:103870000800002080B588B002AFF860B9607A60B7
:103880001B4B1B681B4AA2FB03235B0D4FF47A7290
:1038900002FB03F37B61FB685B68B3F5827F12D1A7
:1038A0007B680093BB6800228021F868FFF75AFF0D
:1038B0000346002B16D0FB685B6D43F02002FB68CB
:1038C0005A6503230FE07B69002B0AD07B69013B1B
:1038D0007B61FB681B689B6803F08003802BF2D040
:1038E00000E000BF002318461837BD4680BD00BF6A
:1038F00008000020819F5E1680B584B000AFF8609C
:10390000B9607A60FB68002B01D1012338E0FB68C5
:1039100093F84930DBB2002B06D1FB68002283F814
:103920004820F868FCF7FAFFFB681A68FB68083360
:103930001946104600F00AFFFB681868FB689B6890
:103940001A46B96800F06CFFFB685868FB689A6813
:10395000FB681B6B796800F099FFFB681B68FA68CD
:10396000926853F82210FB681B68FA68926841F06D
:10397000010143F82210FB68012283F8492000234B
:1039800018461037BD4680BD80B582B000AF786064
:103990007B68002B01D1012341E07B6893F83D3027
:1039A000DBB2002B06D17B68002283F83C207868CC
:1039B000FDF7C6FC7B68022283F83D207B681A680D
:1039C0007B6804331946104600F0CEF97B6801226B
:1039D00083F846207B68012283F83E207B68012221
:1039E00083F83F207B68012283F840207B68012216
:1039F00083F841207B68012283F842207B68012202
:103A000083F843207B68012283F844207B680122ED
:103A100083F845207B68012283F83D200023184667
:103A20000837BD4680BD000080B485B000AF786027
:103A30007B6893F83D30DBB2012B01D001234EE0CF
:103A40007B68022283F83D207B681B68DA687B680C
:103A50001B6842F00102DA607B681B68234A9342CC
:103A600022D07B681B68B3F1804F1DD07B681B6838
:103A70001F4A934218D07B681B681E4A934213D09A
:103A80007B681B681C4A93420ED07B681B681B4AEC
:103A9000934209D07B681B68194A934204D07B6823
:103AA0001B68184A934211D17B681B689B6803F01E
:103AB0000703FB60FB68062B10D07B681B681A6845
:103AC0007B681B6842F001021A6007E07B681B6894
:103AD0001A687B681B6842F001021A6000231846CE
:103AE0001437BD465DF8047B704700BF00000140FD
:103AF0000004004000080040000C004000040140A9
:103B0000004001400018004080B582B000AF7860EE
:103B10007B681B681B6903F00203022B22D17B68C0
:103B20001B68DB6803F00203022B1BD17B681B6858
:103B30006FF002021A617B6801221A777B681B68AA
:103B40009B6903F00303002B03D0786800F0EEF8C4
:103B500005E0786800F0E0F8786800F0F1F87B683C
:103B600000221A777B681B681B6903F00403042B8F
:103B700022D17B681B68DB6803F00403042B1BD194
:103B80007B681B686FF004021A617B6802221A7757
:103B90007B681B689B6903F44073002B03D0786833
:103BA00000F0C4F805E0786800F0B6F8786800F036
:103BB000C7F87B6800221A777B681B681B6903F0D3
:103BC0000803082B22D17B681B68DB6803F008031D
:103BD000082B1BD17B681B686FF008021A617B6899
:103BE00004221A777B681B68DB6903F00303002B50
:103BF00003D0786800F09AF805E0786800F08CF857
:103C0000786800F09DF87B6800221A777B681B6853
:103C10001B6903F01003102B22D17B681B68DB6843
:103C200003F01003102B1BD17B681B686FF0100290
:103C30001A617B6808221A777B681B68DB6903F4CA
:103C40004073002B03D0786800F070F805E07868C6
:103C500000F062F8786800F073F87B6800221A7749
:103C60007B681B681B6903F00103012B0ED17B6885
:103C70001B68DB6803F00103012B07D17B681B681D
:103C80006FF001021A617868FDF73AF87B681B68EB
:103C90001B6903F08003802B0ED17B681B68DB68F7
:103CA00003F08003802B07D17B681B686FF08002D4
:103CB0001A61786800F07EF97B681B681B6903F065
:103CC0004003402B0ED17B681B68DB6803F0400388
:103CD000402B07D17B681B686FF040021A6178683F
:103CE00000F038F87B681B681B6903F02003202B69
:103CF0000ED17B681B68DB6803F02003202B07D103
:103D00007B681B686FF020021A61786800F048F940
:103D100000BF0837BD4680BD80B483B000AF786077
:103D200000BF0C37BD465DF8047B704780B483B09C
:103D300000AF786000BF0C37BD465DF8047B70476C
:103D400080B483B000AF786000BF0C37BD465DF82B
:103D5000047B704780B483B000AF786000BF0C373D
:103D6000BD465DF8047B704780B485B000AF7860D5
:103D700039607B681B68FB607B68404A934213D0C4
:103D80007B68B3F1804F0FD07B683D4A93420BD0E4
:103D90007B683C4A934207D07B683B4A934203D0FE
:103DA0007B683A4A934208D1FB6823F07003FB60BA
:103DB0003B685B68FA681343FB607B682F4A934259
:103DC0002BD07B68B3F1804F27D07B682C4A93427D
:103DD00023D07B682B4A93421FD07B682A4A9342A8
:103DE0001BD07B68294A934217D07B68284A9342AC
:103DF00013D07B68274A93420FD07B68264A9342B0
:103E00000BD07B68254A934207D07B68244A9342B3
:103E100003D07B68234A934208D1FB6823F44073A4
:103E2000FB603B68DB68FA681343FB60FB6823F0C8
:103E300080023B685B691343FB607B68FA681A6029
:103E40003B689A687B68DA623B681A687B689A62AA
:103E50007B680A4A934203D07B680C4A934203D1A1
:103E60003B681A697B681A637B6801225A6100BF4C
:103E70001437BD465DF8047B704700BF0000014069
:103E80000004004000080040000C00400004014015
:103E9000004001400044014000480140001800403B
:103EA000001C00400020004080B485B000AF786066
:103EB00039607B6893F83C30012B01D102235AE032
:103EC0007B68012283F83C207B68022283F83D2036
:103ED0007B681B685B68FB607B681B689B68BB60DA
:103EE000FB6823F07003FB603B681B68FA681343B0
:103EF000FB607B681B68FA685A607B681B68214A14
:103F0000934222D07B681B68B3F1804F1DD07B6841
:103F10001B681D4A934218D07B681B681B4A93425A
:103F200013D07B681B681A4A93420ED07B681B68CB
:103F3000184A934209D07B681B68174A934204D001
:103F40007B681B68154A93420CD1BB6823F0800341
:103F5000BB603B685B68BA681343BB607B681B68E7
:103F6000BA689A607B68012283F83D207B68002252
:103F700083F83C20002318461437BD465DF8047BC7
:103F8000704700BF000001400004004000080040EE
:103F9000000C0040000401400040014000180040B7
:103FA00080B483B000AF786000BF0C37BD465DF8C9
:103FB000047B704780B483B000AF786000BF0C37DB
:103FC000BD465DF8047B704780B582B000AF786075
:103FD0007B68002B01D101233FE07B6893F83D30E3
:103FE000DBB2002B06D17B68002283F83C20786886
:103FF000FDF7F8F97B68242283F83D207B681B6875
:10400000DA687B681B6822F40052DA60786800F096
:1040100029F97B681B681A697B681B6822F4904247
:104020001A617B681B685A697B681B6822F02A0248
:104030005A617B681B68DA687B681B6842F400522F
:10404000DA607B6800221A647B68202283F83D20B6
:104050007B68202283F83E20002318460837BD469F
:1040600080BD80B58AB002AFF860B9603B6013468E
:10407000FB8000237B61FB6893F83D30DBB2202B93
:104080007CD1BB68002B02D0FB88002B01D101231F
:1040900075E0FB6893F83C30012B01D102236EE000
:1040A000FB68012283F83C20FB6800221A64FB684D
:1040B000212283F83D20FDF76DFA7861FB68FA88CC
:1040C0009A84FB68FA88DA84FB689B68B3F5805FA2
:1040D00008D1FB681B69002B04D10023FB61BB687E
:1040E000BB6103E0BB68FB610023BB61FB6800228E
:1040F00083F83C202AE03B6800937B690022802102
:10410000F86800F040F80346002B01D0032336E0A6
:10411000FB69002B0BD1BB691B881A46FB681B6827
:10412000C2F308025A60BB690233BB6107E0FB6956
:104130001A78FB681B685A60FB690133FB61FB68F6
:10414000DB8C9BB2013B9AB2FB68DA84FB68DB8CA8
:104150009BB2002BCFD13B6800937B6900224021AA
:10416000F86800F010F80346002B01D0032306E0A6
:10417000FB68202283F83D20002300E0022318463C
:104180002037BD4680BD80B590B000AFF860B96003
:104190003B601346FB7150E0BB6CB3F1FF3F4CD06A
:1041A000BB6C002B07D0FDF7F5F902463B68D31A2C
:1041B000BA6C9A4241D2FB681B680C33BB62BB6A83
:1041C00053E8003F7B627B6A23F4D073FB63FB6898
:1041D0001B680C33FA6B7A633B63396B7A6B41E88B
:1041E0000023FB62FB6A002BE5D1FB681B681433DC
:1041F0007B617B6953E8003F3B613B6923F001032E
:10420000BB63FB681B681433BA6B3A62FB61F969E4
:104210003A6A41E80023BB61BB69002BE5D1FB682A
:10422000202283F83D20FB68202283F83E20FB6893
:10423000002283F83C2003230FE0FB681B681A6808
:10424000BB681340BA689A420CBF01230023DBB25B
:104250001A46FB799A429FD0002318464037BD4644
:1042600080BD00002DE9B04FC0B000AFC7F8F4002A
:10427000D7F8F4301B681B6923F44050D7F8F430AA
:10428000D968D7F8F4301A6840EA01031361D7F807
:10429000F4309A68D7F8F4301B691A43D7F8F43031
:1042A0005B691A43D7F8F430DB691343C7F8F83079
:1042B000D7F8F4301B68DB6823F4164121F00C01B9
:1042C000D7F8F4301A68D7F8F8300B43D360D7F832
:1042D000F4301B685B6923F44070D7F8F4309969B7
:1042E000D7F8F4301A6840EA01035361D7F8F43084
:1042F0001A688F4B9A4205D0D7F8F4301A688D4B64
:104300009A4204D1FEF728F9C7F8FC0003E0FEF753
:104310000FF9C7F8FC00D7F8F430DB69B3F5004FAC
:1043200040F00C81D7F8FC300022C7F8E830C7F81D
:10433000EC20D7E93A4522462B469118B9655B41F6
:10434000FB65D7E91623214612EB0108294643EB0A
:1043500001094FF000024FF000034FEAC90343EA9E
:1043600058734FEAC80290469946234618EB030358
:10437000C7F8E0302B4649EB0303C7F8E430D7F821
:10438000F4305B680022C7F8D830C7F8DC20D7E9E2
:1043900036120B46DB183B65134642EB03037B6585
:1043A000D7E91423D7E93801FBF762FF02460B4631
:1043B000614BA3FB02235B091C01D7F8FC300022F0
:1043C000C7F8D030C7F8D420D7E9348942464B46E5
:1043D0009118B9645B41FB64D7E91223414612EBA3
:1043E000010A494643EB010B4FF000024FF0000376
:1043F0004FEACB0343EA5A734FEACA0292469B46FE
:1044000043461AEB0303C7F8C8304B464BEB030394
:10441000C7F8CC30D7F8F4305B680022C7F8C0305A
:10442000C7F8C420D7E930120B46DB183B641346AB
:1044300042EB03037B64D7E91023D7E93201FBF792
:1044400017FF02460B4611463B4BA3FB01235B09BA
:10445000642202FB03F3CB1ADB0003F13202364B7A
:10446000A3FB02235B095B0003F4F8731C44D7F839
:10447000FC300022C7F8B830C7F8BC20D7E92E8935
:1044800042464B469118B9635B41FB63D7E90E2363
:1044900041465118396349464B417B634FF0000256
:1044A0004FF00003D7E90CAB5946CB00514643EA25
:1044B00051735146CA0010461946034642469B189E
:1044C000C7F8B0304B460A4642EB0303C7F8B43096
:1044D000D7F8F4305B680022C7F8A830C7F8AC20E2
:1044E000D7E92A120B46DB18BB62134642EB0303E3
:1044F000FB62D7E90A23D7E92C01FBF7B9FE024694
:104500000B460D4BA3FB02135B09642101FB03F374
:10451000D31ADB003233084AA2FB03235B0903F002
:104520000702D7F8F4301B6822449A6006E100BF06
:1045300000100140001401401F85EB51D7F8FC30FA
:104540000022C7F8A030C7F8A420D7E9288942463E
:104550004B46911839625B417B62D7E9082341469B
:104560005418494643EB01054FF000024FF0000399
:10457000EB0043EA5473E20014461D464346E31839
:10458000C7F898304B4645EB0303C7F89C30D7F883
:10459000F4305B680022C7F89030C7F894204FF0E1
:1045A00000024FF00003D7E9244529468B0021463D
:1045B00043EA917321468A00D7E92601FBF758FEAA
:1045C00002460B46604BA3FB02235B091C01D7F894
:1045D000FC300022C7F88830C7F88C20D7E9228940
:1045E00042464B469118B9615B41FB61D7E906230E
:1045F00041465118396149464B417B614FF00002F9
:104600004FF00003D7E904AB5946CB00514643EACB
:1046100051735146CA0010461946034642469B183C
:10462000C7F880304B460A4642EB0303C7F8843094
:10463000D7F8F4305B680022BB67FA674FF00002DE
:104640004FF00003D7E91E8949468B00414643EAF3
:10465000917341468A00D7E92001FBF709FE024623
:104660000B461146384BA3FB01235B09642202FB76
:1046700003F3CB1A1B013233334AA2FB03235B093A
:1046800003F0F0031C44D7F8FC3000223B677A6744
:10469000D7E91C8942464B469118B9605B41FB60E3
:1046A000D7E9022341465118396049464B417B60A6
:1046B0004FF000024FF00003D7E900AB5946CB00A2
:1046C000514643EA51735146CA0010461946034603
:1046D00042469B18BB664B460A4642EB0303FB6609
:1046E000D7F8F4305B6800223B667A664FF0000230
:1046F0004FF00003D7E9188949468B00414643EA49
:10470000917341468A00D7E91A01FBF7B1FD0246D1
:104710000B460D4BA3FB02135B09642101FB03F362
:10472000D31A1B013233084AA2FB03235B0903F0AF
:104730000F02D7F8F4301B6822449A6000BF07F5D7
:104740008077BD46BDE8B08F1F85EB5180B487B040
:1047500000AF786039603B681A687B6853F8223094
:104760003A68126823F001017B6843F822103B6825
:104770009B68082B02D140237B6101E000237B6111
:104780003B685A687B691A433B689B681A433B68DD
:10479000DB681A433B681B691A433B685B691A4331
:1047A0003B68DB691A433B681B6A1A433B685B6AD8
:1047B0001A433B689B6A1A433B68DB6A1A433B68AF
:1047C0001B6B13433B613B689B693A6913433B6135
:1047D0003B68DB6B3A6913433B61104BFB60FB6842
:1047E00043F48063FB60FB6843F4E023FB603B68B9
:1047F0001A687B6853F82220FB68DB4302EA030156
:104800003B681A683B6919437B6843F82210002310
:1048100018461C37BD465DF8047B70477FFB0800D7
:1048200080B485B000AFF860B9607A607B685A1CCC
:10483000FB6853F8223003F04041BB681A68BB683C
:104840005B681B011A43BB689B681B021A43BB6869
:10485000DB681B041A43BB681B69013B1B051A4339
:10486000BB685B69023B1B061A43BB689B69134329
:104870007A6801321943FB6843F822100023184676
:104880001437BD465DF8047B7047000080B485B0E6
:1048900000AFF860B9607A603B603B68B3F5804F69
:1048A0001DD1FB687A6853F82220134B1340BA6875
:1048B0001168BA68526812011143BA68926812020C
:1048C0001143BA6892691143BA68D26812040A4364
:1048D00043EA0201FB687A6843F8221005E0FB68AE
:1048E0007A686FF0704143F822100023184614379D
:1048F000BD465DF8047B70470000F0CF80B500AF87
:1049000000224FF480510248FDF756F900BF80BDE8
:104910000004024080B500AF01224FF480510248EC
:10492000FDF74AF900BF80BD0004024080B500AF2A
:1049300020210548FDF728F90346002B0CBF012371
:104940000023DBB2184680BD0008024080B58CB061
:1049500002AF78603960FFF7D1FF00237B6200234C
:104960003B620023FB770023BB773FE0FFF7DEFFCE
:10497000034683F00103DBB2002B3BD1FB7F013305
:10498000FB774FF0FF33012245494648FEF70CFC08
:1049900007F110024FF0FF330093022342494148D0
:1049A000FEF73EFD4FF0FF33012240493D48FEF740
:1049B000FBFB07F10C024FF0FF33009302233A494F
:1049C0003848FEF72DFD3B7B1B027A7B13431A46CA
:1049D0007B6A13447B623B7C1B027A7C13431A463E
:1049E0003B6A13443B62BB7F0133BB77BB7F0F2B1A
:1049F000BCD900E000BFFFF78DFFFB7F0F2B01D874
:104A0000002349E07B6A1B09BB61BB6940F6475242
:104A1000934202D840F64853BB61BB6947F2481243
:104A2000934202D947F24813BB613B6A1B097B6181
:104A30007B6940F6E342934202D840F6E4437B614F
:104A40007B6947F23052934202D947F230537B617F
:104A5000BA6913461B019B1A1B01A3F54723A3F553
:104A60006073134AA2FB03235B0B9AB27B681A8024
:104A70007A6913469B0013449B01A3F58013A3F5A9
:104A8000E8530C4AA2FB03235B0B9BB2C3F5A07354
:104A90009AB23B681A80012318462837BD4680BD6C
:104AA000DCE7010890010020E0E70108E4E70108E5
:104AB0001F85EB5159868B4E80B483B000AF0346FF
:104AC000FB714FF0C043FA7992B21A8000BF0C37E5
:104AD000BD465DF8047B704780B483B000AF0346E9
:104AE000FB80044AFB88138000BF0C37BD465DF88D
:104AF000047B70470000086080B500AF0120FFF71D
:104B0000DBFF3220FCF752FD00BF80BD90B484B0C3
:104B100000AF0446084611461A462346FB71034679
:104B2000BB710B467B7113463B710023FB733B7FCC
:104B3000002B03D0FB7B43F00403FB733B7E002B75
:104B400003D0FB7B43F00803FB733B79002B03D0BE
:104B5000FB7B43F01003FB737B79002B03D0FB7BC3
:104B600043F02003FB73BB79002B03D0FB7B43F0A6
:104B70004003FB73FB79002B03D0FB7B63F07F03C7
:104B8000FB73FB7B18461037BD4690BC7047000096
:104B900080B582B002AF002301930123009300236C
:104BA000002201210020FFF7B1FF03461A46AE4B59
:104BB0001A70002301930123009300230122002196
:104BC0000020FFF7A3FF03461A46A84B1A700023E4
:104BD0000193012300930023002200210120FFF70D
:104BE00095FF03461A46A24B1A7000230193012336
:104BF00000930023012201210120FFF787FF0346D4
:104C00001A469C4B1A70FFF777FF2820FFF754FFD6
:104C1000CF20FFF751FF0020FFF75EFF8320FFF753
:104C20005BFF3020FFF758FFED20FFF745FF6420C2
:104C3000FFF752FF0320FFF74FFF1220FFF74CFF53
:104C40008120FFF749FFE820FFF736FF8520FFF7B7
:104C500043FF0120FFF740FF7920FFF73DFFCB2006
:104C6000FFF72AFF3920FFF737FF2C20FFF734FF2B
:104C70000020FFF731FF3420FFF72EFF0220FFF75F
:104C80002BFFF720FFF718FF2020FFF725FFEA2072
:104C9000FFF712FF0020FFF71FFF0020FFF71CFFA8
:104CA000C020FFF709FF2620FFF716FFC120FFF7FE
:104CB00003FF1120FFF710FFC520FFF7FDFE352091
:104CC000FFF70AFF3E20FFF707FFC720FFF7F4FEBC
:104CD000BE20FFF701FF3620FFF7EEFE644B1B7886
:104CE0001846FFF7F9FE3A20FFF7E6FE5520FFF7DA
:104CF000F3FEB120FFF7E0FE0020FFF7EDFE1B20E2
:104D0000FFF7EAFEF220FFF7D7FE0820FFF7E4FEE8
:104D10002620FFF7D1FE0120FFF7DEFEE020FFF79F
:104D2000CBFE1F20FFF7D8FE1A20FFF7D5FE182074
:104D3000FFF7D2FE0A20FFF7CFFE0F20FFF7CCFED1
:104D40000620FFF7C9FE4520FFF7C6FE8720FFF7C4
:104D5000C3FE3220FFF7C0FE0A20FFF7BDFE07208A
:104D6000FFF7BAFE0220FFF7B7FE0720FFF7B4FEF9
:104D70000520FFF7B1FE0020FFF7AEFEE120FFF7B0
:104D80009BFE0020FFF7A8FE2520FFF7A5FE2720A9
:104D9000FFF7A2FE0520FFF79FFE1020FFF79CFE05
:104DA0000920FFF799FE3A20FFF796FE7820FFF7DB
:104DB00093FE4D20FFF790FE0520FFF78DFE182093
:104DC000FFF78AFE0D20FFF787FE3820FFF784FEED
:104DD0003A20FFF781FE1F20FFF77EFE2A20FFF713
:104DE0006BFE0020FFF778FE0020FFF775FE002025
:104DF000FFF772FEEF20FFF76FFE2B20FFF75CFE40
:104E00000020FFF769FE0020FFF766FE0120FFF794
:104E100063FE3F20FFF760FEB720FFF74DFE07203F
:104E2000FFF75AFEB620FFF747FE0A20FFF754FEB1
:104E30008220FFF751FE2720FFF74EFE0020FFF7EC
:104E40004BFE1120FFF738FE6420FCF7AFFB292052
:104E5000FFF732FE6420FCF7A9FB2C20FFF72CFEA5
:104E600000BFBD4680BD00BF7C0200207D02002047
:104E70007E0200207F02002080B500AF01220221C7
:104E80000248FCF799FE00BF80BD00BF000402404D
:104E900090B583B000AF0446084611461A46234633
:104EA000FB800346BB800B467B8013463B802A2059
:104EB000FFF702FEFB881B0A9BB21846FFF70CFEA9
:104EC000FB88DBB29BB21846FFF706FE7B881B0A05
:104ED0009BB21846FFF700FE7B88DBB29BB21846F8
:104EE000FFF7FAFD2B20FFF7E7FDBB881B0A9BB2FB
:104EF0001846FFF7F1FDBB88DBB29BB21846FFF7FF
:104F0000EBFD3B881B0A9BB21846FFF7E5FD3B888B
:104F1000DBB29BB21846FFF7DFFD2C20FFF7CCFD7C
:104F200000BF0C37BD4690BD80B500AF04F0DCFC7F
:104F300004F0B0FC00BF80BD80B500AF04F0DCFC25
:104F400000BF80BD80B483B000AF7860044A7B6846
:104F50001A607B6818460C37BD465DF8047B7047C5
:104F600004E8010880B582B000AF78607868FFF788
:104F7000E9FF0421786817F0BEF97B681846083706
:104F8000BD4680BD80B582B000AF78600B467B80A7
:104F90007B88022B10D0022B13DC002B02D0012BBC
:104FA00005D00EE003F072F903461B680AE003F037
:104FB0006DF903465B6805E003F068F903469B68FA
:104FC00000E0002318460837BD4680BD80B582B09A
:104FD00000AF7860054A7B681A607B681846FFF767
:104FE000B1FF7B6818460837BD4680BDF0E7010871
:104FF00080B582B000AF78607868FFF7E7FF0421E2
:10500000786817F078F97B6818460837BD4680BD88
:1050100080B483B000AF7860044A7B681A607B6814
:1050200018460C37BD465DF8047B70476CEC0108F0
:1050300080B582B000AF78607868FFF7E9FF14218F
:10504000786817F058F97B6818460837BD4680BD68
:1050500090B587B000AF78600B467B807B88002BD3
:1050600001D1002310E000233B610023FB737B6828
:105070001B6808331C6807F10F0307F110027988D9
:105080007868A04778617B6918461C37BD4690BD9B
:1050900080B483B000AF78607B68DB8918460C373A
:1050A000BD465DF8047B704780B483B000AF786084
:1050B0007B681B8A18460C37BD465DF8047B704739
:1050C00080B483B000AF78607B68DB8818460C370B
:1050D000BD465DF8047B704780B483B000AF786054
:1050E0007B689B8818460C37BD465DF8047B70478B
:1050F00080B483B000AF78607B689B7AC3F306030B
:10510000DBB218460C37BD465DF8047B704780B4AF
:1051100083B000AF78607B689B7AC3F3C013DBB2C7
:1051200018460C37BD465DF8047B704780B582B0E9
:1051300000AF7860054A7B681A607B681846FFF705
:1051400067FF7B6818460837BD4680BD78F70108C1
:1051500080B582B000AF78607868FFF7E7FF1C2168
:10516000786817F0C8F87B6818460837BD4680BDD8
:1051700080B582B000AF7860054A7B681A607B68B2
:105180001846FFF7D3FF7B6818460837BD4680BD39
:1051900028E8010880B582B000AF78607868FFF732
:1051A000E7FF2C21786817F0A6F87B6818460837C7
:1051B000BD4680BD80B483B000AF7860044A7B6890
:1051C0001A607B6818460C37BD465DF8047B704753
:1051D00018E8010880B582B000AF78607868FFF702
:1051E000E9FF0821786817F086F87B6818460837C9
:1051F000BD4680BD80B483B000AF78607B685B6AD9
:1052000018460C37BD465DF8047B704780B483B008
:1052100000AF78607B689B6A18460C37BD465DF826
:10522000047B704780B58EB00AAFF860B960114654
:105230001A460B46FB801346BB80F868B988FA888B
:10524000B7F840300893BB8F079397F83030069338
:1052500097F82C30059397F82830049397F824306A
:10526000039397F8203002933B7F01933B8B00938D
:105270000B46B96809F08AFE094AFB681A60FB68A8
:105280007A6BDA61FB68BA6B1A62FB687A6C5A62F5
:10529000FB68BA6C9A62FB6818461037BD4680BD41
:1052A00028E8010880B485B000AF786039607B6879
:1052B000DB69FB603B689B88DB0A9BB29B00FA685A
:1052C00013441A683B681B68134418461437BD46DC
:1052D0005DF8047B704780B489B000AFF8600B467E
:1052E0007A607B817B68002B03D07B681B7B002B63
:1052F00001D1002332E0FB681A6A7B687B617B691D
:105300005B7B1BB21B021BB203F4E06319B27B6927
:10531000DB7A1BB20B431BB29BB29B001344FB61B5
:105320007B681B7B7B8313E0FB691B887A899A422D
:1053300003D1FB6993F9023010E0FB691B887A897D
:105340009A4209D37B8B013B7B83FB690433FB616E
:105350007B8B002BE8D100E000BF002318462437E8
:10536000BD465DF8047B704780B500AF0148FFF78C
:10537000FFFE80BD8002002080B58EB00EAF214BB5
:105380001B68BFF35B8F03F00103002B0CBF0123ED
:105390000023DBB2002B30D01A4816F0AEFF0346D4
:1053A000002B14BF01230023DBB2002B25D00023E8
:1053B0000C9300230B9300230A933F230993124B72
:1053C0000893124B079300230693002305930123B0
:1053D00004930423039300230293002301930A23DD
:1053E00000930A2301220A490A48FFF71BFF0A48D3
:1053F00016F0CEFF034816F08CFF064B1846BD464C
:1054000080BD00BFAC020020000402080C040208AA
:1054100090020208800200206953000880B500AFA6
:105420000148FFF7A5FE80BDB002002080B58EB018
:105430000EAF214B1B68BFF35B8F03F00103002B02
:105440000CBF01230023DBB2002B30D01A4816F02A
:1054500054FF0346002B14BF01230023DBB2002BB3
:1054600025D000230C9300230B9300230A933F23A2
:105470000993124B0893124B0793012306930023C1
:105480000593012304930423039300230293002331
:10549000019314230093182318220A490A48FFF79E
:1054A000C1FE0A4816F074FF034816F032FF064B9F
:1054B0001846BD4680BD00BFDC020020040402087F
:1054C00010040208A0020208B00200201D540008C7
:1054D00080B500AF0148FFF74BFE80BDE002002021
:1054E00080B58EB00EAF214B1B68BFF35B8F03F00E
:1054F0000103002B0CBF01230023DBB2002B30D0B3
:105500001A4816F0FAFE0346002B14BF01230023AD
:10551000DBB2002B25D000230C9300230B93002338
:105520000A933F230993124B0893124B07930023CE
:10553000069300230593012304930423039300237C
:1055400002930023019328230093282301220A4970
:105550000A48FFF767FE0A4816F01AFF034816F0DC
:10556000D8FE064B1846BD4680BD00BF0C03002088
:105570000804020814040208F0030208E0020020F4
:10558000D154000880B483B000AF786039603B68C4
:1055900018460C37BD465DF8047B704780B483B075
:1055A00000AF78607B6800221A807B6800225A80F6
:1055B0007B6800229A807B680022DA807B6818462C
:1055C0000C37BD465DF8047B704780B485B000AFF2
:1055D000F860084611461A4603467B810B463B811C
:1055E0001346FB80FB687A891A80FB683A895A80E7
:1055F000FB68FA889A80FB683A8BDA80FB68184669
:105600001437BD465DF8047B7047000080B582B05A
:1056100000AF7860144A7B681A607B6804331846D0
:10562000FFF7BCFF7B680C331846FFF7B7FF7B68BA
:1056300000225A617B6800229A617B680022DA614D
:105640007B6800221A847B6800225A847B680022CF
:1056500083F824207B68012283F825207B68184684
:105660000837BD4680BD00BF10F7010880B483B085
:1056700000AF7860044A7B681A607B6818460C3774
:10568000BD465DF8047B704710F7010880B582B015
:1056900000AF78607868FFF7E9FF2821786816F096
:1056A0002AFE7B6818460837BD4680BD80B582B0AB
:1056B00000AF78607B6893F82530002B05D07B68BD
:1056C0001B6814331B687868984700BF0837BD46CD
:1056D00080BD80B483B000AF7860002318460C37DB
:1056E000BD465DF8047B704780B584B000AFF860BC
:1056F000084611461A4603467B810B463B811346FA
:10570000FB80B7F90820B7F90A301946F86800F0AD
:1057100037F8B7F91820B7F906301946F86800F0DD
:105720008BF800BF1037BD4680BD80B483B000AF9A
:1057300078607B68B3F9083018460C37BD465DF8D1
:10574000047B704780B483B000AF78600B467B80E9
:105750007B687A889A8000BF0C37BD465DF8047B71
:10576000704780B483B000AF78600B467B807B6865
:105770007A88DA8000BF0C37BD465DF8047B70473D
:1057800080B582B000AF78600B467B8013463B80CB
:105790007B681B6830331B68B7F9022011467868B4
:1057A00098477B681B6834331B68B7F900201146A3
:1057B0007868984700BF0837BD4680BD80B483B085
:1057C00000AF78600B467B807B687A881A8100BFC7
:1057D0000C37BD465DF8047B704780B483B000AFE2
:1057E00078600B467B807B687A885A8100BF0C37D3
:1057F000BD465DF8047B704780B483B000AF78602D
:1058000000BF0C37BD465DF8047B704780B483B0A1
:1058100000AF7860396000BF0C37BD465DF8047B8F
:10582000704780B483B000AF7860396000BF0C3738
:10583000BD465DF8047B704780B582B000AF7860EC
:105840000B467B8013463B807B681B6838331B68A4
:10585000B7F902201146786898477B681B683C338B
:105860001B68B7F9002011467868984700BF0837D1
:10587000BD4680BD80B483B000AF7860396000BFA2
:105880000C37BD465DF8047B704780B483B000AF31
:10589000786000BF0C37BD465DF8047B704780B46C
:1058A00083B000AF78607B6893F8253018460C37DA
:1058B000BD465DF8047B704780B483B000AF78606C
:1058C0007B6893F8243018460C37BD465DF8047B9E
:1058D000704780B582B000AF78600B467B8013467E
:1058E0003B807B681B6854331B6879887A68B2F9FF
:1058F000042092B28A1A92B210B239887A68B2F948
:10590000062092B28A1A92B212B20146786898477B
:1059100000BF0837BD4680BD80B483B000AF78605B
:105920007B684FF6FF729A817B684FF6FF721A848C
:105930007B684FF6FF725A8400BF0C37BD465DF896
:10594000047B704780B584B000AFF860B9607A60BE
:10595000F868FFF7E1FF7B681A68FB68DA617B682B
:10596000FA681A6000BF1037BD4680BD80B483B0AE
:1059700000AF7860396000BF0C37BD465DF8047B2E
:10598000704780B483B000AF7860396000BF0C37D7
:10599000BD465DF8047B704780B483B000AF78608B
:1059A000396000BF0C37BD465DF8047B704780B49A
:1059B00083B000AF78600B46FB7000BF0C37BD466C
:1059C0005DF8047B704780B483B000AF786000BF9F
:1059D0000C37BD465DF8047B704780B483B000AFE0
:1059E000786000BF0C37BD465DF8047B704700004F
:1059F00080B483B000AF7860044A7B681A607B682B
:105A000018460C37BD465DF8047B70478CEA0108E8
:105A100080B582B000AF78607868FFF7E9FF0421B5
:105A2000786816F068FC7B6818460837BD4680BD6C
:105A300080B483B000AF786000BF0C37BD465DF81E
:105A4000047B704780B483B000AF78600B46FB7076
:105A500000BF0C37BD465DF8047B704780B483B04F
:105A600000AF786039607B683A6803F59873106816
:105A7000516803C300BF0C37BD465DF8047B704717
:105A800080B582B000AF78607B680433184608F0B8
:105A9000B0F900BF0837BD4680BD000080B483B0B8
:105AA00000AF7860044A7B681A607B6818460C3740
:105AB000BD465DF8047B704774EA010880B582B08A
:105AC00000AF78607868FFF7E9FF0421786816F086
:105AD00012FC7B6818460837BD4680BD80B400AF15
